:020000040800F2
:1000000000200020C10000084D020008670200081F
:1000100000000000000000000000000000000000E0
:100020000000000000000000000000004D02000879
:1000300000000000000000004D0200084D02000812
:100040004D0200084D0200084D02000800000000AB
:100050004D0200084D0200084D0200084D02000844
:100060004D0200084D0200084D0200084D02000834
:100070004D0200084D0200084D0200084D02000824
:100080004D0200084D0200084D020008000000006B
:100090004D0200084D0200084D0200084D02000804
:1000A0004D0200084D0200084D0200084D020008F4
:1000B0004D0200084D0200084D0200084D020008E4
:1000C0000024E443A64600F0C2F8A64609480A49BF
:1000D0000022814201D004C0FBE708480849094AD0
:1000E000814202D008CA08C0FAE700B500F00CF857
:1000F00000DE0000000000200400002000000020BE
:1001000000000020D002000880B500AF00F002F827
:10011000FEDED4D480B500AF00F0A2F8044601257D
:100120002C4000F096F83B480678002E04D0002CB6
:1001300005D0002E09D067E00570002CF9D10446E7
:1001400000F089F82046002E5ED1064600F088F8BF
:1001500004462C4000F07DF830467678002E4CD0D6
:10016000002C4DD0002E4FD128032C4C6060032072
:100170000002206068022168014208D12168014222
:1001800005D12168014202D121680142F3D0E06823
:1001900023490140E160E06A2843E06200F05DF835
:1001A000E06A02210143E16200F057F805200007F0
:1001B000C1681C4A1140C1604168202399434160D5
:1001C00001681140AA02891801601748C168174ADE
:1001D0001140C1604168102399434160016811409A
:1001E0002A02891801601248016804220A43026049
:1001F0001048262100F025F8FEDE4570002CB1D114
:1002000000F029F8002EAFD003482B2100F019F898
:10021000FEDEC046000000207C0200080010024004
:100220000CC0FFFFFFF3FFFF00040050FFFCFFFFC7
:1002300010E000E0A702000880B500AF00F008F869
:10024000FEDE80B500AFFFF7F7FFFEDEFEE770478A
:10025000FEE772B6704762B67047BFF34F8F7047C4
:10026000EFF31080704770460421084202D1EFF38B
:0C027000088002E0EFF30980FFE7FEE7E2
:10027C0063616C6C656420604F7074696F6E3A3AA0
:10028C00756E77726170282960206F6E2061206016
:10029C004E6F6E65602076616C7565617373657207
:1002AC0074696F6E206661696C65643A206672656C
:1002BC0071203E20315F3030305F3030305F75332D
:0402CC0032000000FC
:04000005080000C12E
:00000001FF
